:100000000C9434000C9446000C9446000C9446006A
:100010000C9446000C9446000C9446000C94460048
:100020000C9446000C9446000C9446000C94460038
:100030000C9446000C9446000C9446000C94460028
:100040000C9446000C9446000C9446000C94460018
:100050000C9446000C9446000C9446000C94460008
:100060000C9446000C94460011241FBECFEFD8E03C
:10007000DEBFCDBF21E0A0E0B1E001C01D92A03005
:10008000B207E1F70E9411060C945D0F0C9400007A
:10009000CF93DF93CDB7DEB70E94DC0C0000DF9179
:1000A000CF910895CF93DF9300D0CDB7DEB789838A
:1000B0006A838A818823A9F085E290E025E230E016
:1000C000F9012081622F2981422F50E021E030E0A8
:1000D00002C0220F331F4A95E2F7262BFC01208332
:1000E00015C085E290E025E230E0F9012081622F21
:1000F0002981422F50E021E030E002C0220F331F5F
:100100004A95E2F720952623FC01208300000F90FA
:100110000F90DF91CF910895CF93DF9300D0CDB7AB
:10012000DEB789836A838A818823A9F088E290E018
:1001300028E230E0F9012081622F2981422F50E02E
:1001400021E030E002C0220F331F4A95E2F7262B50
:10015000FC01208315C088E290E028E230E0F9013C
:100160002081622F2981422F50E021E030E002C03F
:10017000220F331F4A95E2F720952623FC012083A6
:1001800000000F900F90DF91CF910895CF93DF93F0
:100190001F92CDB7DEB7898386E290E0FC018081B3
:1001A000282F30E08981482F50E081E090E002C0A4
:1001B000880F991F4A95E2F78223932321E0892B28
:1001C00009F420E0822F0F90DF91CF910895CF9313
:1001D000DF9300D0CDB7DEB789836A838A81882315
:1001E000A9F08BE290E02BE230E0F9012081622F50
:1001F0002981422F50E021E030E002C0220F331F5E
:100200004A95E2F7262BFC01208315C08BE290E093
:100210002BE230E0F9012081622F2981422F50E04A
:1002200021E030E002C0220F331F4A95E2F720950B
:100230002623FC01208300000F900F90DF91CF91C7
:100240000895CF93DF931F92CDB7DEB7898389E2FC
:1002500090E0FC018081282F30E08981482F50E018
:1002600081E090E002C0880F991F4A95E2F782234F
:10027000932321E0892B09F420E0822F0F90DF9156
:10028000CF910895CF93DF931F92CDB7DEB78983C7
:10029000698180E00E948C0000000F90DF91CF9177
:1002A0000895CF93DF93CDB7DEB781E00E94C600FB
:1002B000DF91CF910895CF93DF93CDB7DEB782E082
:1002C0000E94C600DF91CF910895CF93DF931F92D4
:1002D000CDB7DEB78983698183E00E948C0000007E
:1002E0000F90DF91CF910895CF93DF93CDB7DEB715
:1002F00081E00E942101DF91CF910895CF93DF9398
:100300001F92CDB7DEB78983698182E00E94E70042
:1003100000000F90DF91CF910895CF93DF931F924C
:10032000CDB7DEB78983698186E00E94E7000000CF
:100330000F90DF91CF910895CF93DF931F92CDB7A8
:10034000DEB78983698187E00E94E70000000F9093
:10035000DF91CF910895CF93DF931F92CDB7DEB792
:100360008983698181E00E94520000000F90DF9133
:10037000CF910895CF93DF931F92CDB7DEB78983D6
:10038000698182E00E94520000000F90DF91CF91BE
:100390000895CF93DF93CDB7DEB7A2970FB6F89449
:1003A000DEBF0FBECDBF1A82198281E00E946501B7
:1003B00080E090E0A0E7B1E48B839C83AD83BE83B3
:1003C0002BEA3AEA4AE250E46B817C818D819E817E
:1003D0000E94F00EDC01CB018F839887A987BA8732
:1003E0008B819C81AD81BE819C01AD01BC01CD01A1
:1003F0000E94640DDC01CB018B879C87AD87BE8793
:1004000020E030E040E85FE36F81788589859A8558
:100410000E94D00D88231CF481E08F87B2C020E0B9
:100420003FEF4FE757E46B857C858D859E850E9465
:10043000EB0E18160CF07BC020E030E04AE754E4E5
:100440006B817C818D819E810E94D50DDC01CB0169
:10045000888B998BAA8BBB8B20E030E04AEF54E469
:10046000688979898A899B890E94F00EDC01CB0119
:100470008C8B9D8BAE8BBF8B20E030E040E85FE340
:100480006C897D898E899F890E94D00D88232CF4E8
:1004900081E090E0998F888F3FC020E03FEF4FE7E9
:1004A00057E46C897D898E899F890E94EB0E18160E
:1004B0004CF520E030E040E251E4688979898A898E
:1004C0009B890E94F00EDC01CB01BC01CD010E9492
:1004D000470EDC01CB01998F888F0FC088EC90E02C
:1004E0009B8F8A8F8A8D9B8D0197F1F79B8F8A8FC7
:1004F000888D998D0197998F888F888D998D892BFB
:1005000069F73FC06C897D898E899F890E94470E5B
:10051000DC01CB01998F888F888D998D9D8F8C8F71
:100520008C8D9D8D0197F1F79D8F8C8F2AC020E0D7
:1005300030E04FE753E46F81788589859A850E9482
:10054000EB0E1816ACF46B857C858D859E850E941C
:10055000470EDC01CB019F8F8E8F8E8D9F8D99A3CF
:1005600088A388A199A10197F1F799A388A30FC047
:100570006F81788589859A850E94470EDC01CB01C1
:100580008F878F858AA38AA18A95F1F78AA380E055
:100590000E94650105C089819A8101969A838983A9
:1005A0000E945B01982F81E08927882359F0898177
:1005B0009A81883893417CF305C089819A8101969C
:1005C0009A8389830E945B01882329F089819A811B
:1005D0008838934194F389819A818C3D954014F435
:1005E00081E001C080E0A2960FB6F894DEBF0FBE96
:1005F000CDBFDF91CF910895CF93DF93CDB7DEB715
:10060000A3970FB6F894DEBF0FBECDBF1A82198232
:100610001B8281E00E947E0180E090E0A0E7B1E4CF
:100620008C839D83AE83BF832BEA3AEA4AE250E48F
:100630006C817D818E819F810E94F00EDC01CB0157
:1006400088879987AA87BB878C819D81AE81BF816E
:100650009C01AD01BC01CD010E94640DDC01CB0108
:100660008C879D87AE87BF8720E030E040E85FE35E
:10067000688579858A859B850E94D00D88231CF426
:1006800081E0888BB2C020E03FEF4FE757E46C85F4
:100690007D858E859F850E94EB0E18160CF07BC021
:1006A00020E030E04AE754E46C817D818E819F81B7
:1006B0000E94D50DDC01CB01898B9A8BAB8BBC8B57
:1006C00020E030E04AEF54E469897A898B899C897B
:1006D0000E94F00EDC01CB018D8B9E8BAF8BB88F0F
:1006E00020E030E040E85FE36D897E898F89988D56
:1006F0000E94D00D88232CF481E090E09A8F898F9E
:100700003FC020E03FEF4FE757E46D897E898F8936
:10071000988D0E94EB0E18164CF520E030E040E278
:1007200051E469897A898B899C890E94F00EDC01E9
:10073000CB01BC01CD010E94470EDC01CB019A8F99
:10074000898F0FC088EC90E09C8F8B8F8B8D9C8D58
:100750000197F1F79C8F8B8F898D9A8D01979A8FD6
:10076000898F898D9A8D892B69F73FC06D897E8924
:100770008F89988D0E94470EDC01CB019A8F898F5B
:10078000898D9A8D9E8F8D8F8D8D9E8D0197F1F71E
:100790009E8F8D8F2AC020E030E04FE753E46885BC
:1007A00079858A859B850E94EB0E1816ACF46C85C2
:1007B0007D858E859F850E94470EDC01CB0198A325
:1007C0008F8F8F8D98A19AA389A389A19AA1019750
:1007D000F1F79AA389A30FC0688579858A859B85DF
:1007E0000E94470EDC01CB01888B88898BA38BA1EB
:1007F0008A95F1F78BA380E00E947E0105C0898174
:100800009A8101969A8389830E947401982F81E0CE
:100810008927882359F089819A81883893417CF30C
:1008200005C089819A8101969A8389830E94740107
:10083000882329F089819A818838934194F38981AA
:100840009A818C3D954014F481E08B838B81A39633
:100850000FB6F894DEBF0FBECDBFDF91CF910895E4
:10086000CF93DF93CDB7DEB7A2970FB6F894DEBF74
:100870000FBECDBF1A82198281E00E94420180E042
:1008800090E0A0E7B1E48B839C83AD83BE832BEA29
:100890003AEA4AE250E46B817C818D819E810E941C
:1008A000F00EDC01CB018F839887A987BA878B81F3
:1008B0009C81AD81BE819C01AD01BC01CD010E9436
:1008C000640DDC01CB018B879C87AD87BE8720E060
:1008D00030E040E85FE36F81788589859A850E94E2
:1008E000D00D88231CF481E08F87B2C020E03FEF59
:1008F0004FE757E46B857C858D859E850E94EB0EC6
:1009000018160CF07BC020E030E04AE754E46B811D
:100910007C818D819E810E94D50DDC01CB01888B6D
:10092000998BAA8BBB8B20E030E04AEF54E46889B6
:1009300079898A899B890E94F00EDC01CB018C8B1E
:100940009D8BAE8BBF8B20E030E040E85FE36C898D
:100950007D898E899F890E94D00D88232CF481E0A7
:1009600090E0998F888F3FC020E03FEF4FE757E43A
:100970006C897D898E899F890E94EB0E18164CF533
:1009800020E030E040E251E4688979898A899B89D6
:100990000E94F00EDC01CB01BC01CD010E94470E8C
:1009A000DC01CB01998F888F0FC088EC90E09B8F82
:1009B0008A8F8A8D9B8D0197F1F79B8F8A8F888D07
:1009C000998D0197998F888F888D998D892B69F7DB
:1009D0003FC06C897D898E899F890E94470EDC010A
:1009E000CB01998F888F888D998D9D8F8C8F8C8D61
:1009F0009D8D0197F1F79D8F8C8F2AC020E030E00C
:100A00004FE753E46F81788589859A850E94EB0EC4
:100A10001816ACF46B857C858D859E850E94470EEB
:100A2000DC01CB019F8F8E8F8E8D9F8D99A388A324
:100A300088A199A10197F1F799A388A30FC06F81AD
:100A4000788589859A850E94470EDC01CB018F87C6
:100A50008F858AA38AA18A95F1F78AA380E00E94F4
:100A6000420105C089819A8101969A8389830E94F7
:100A70005101982F81E08927882359F089819A8133
:100A8000883893417CF305C089819A8101969A83C5
:100A900089830E945101882329F089819A818838AD
:100AA000934194F389819A818C3D954014F481E0BF
:100AB00001C080E0A2960FB6F894DEBF0FBECDBF96
:100AC000DF91CF910895CF93DF9300D000D0CDB7C1
:100AD000DEB79A8389837C836B8389819A818F3F78
:100AE000910509F05CF481E00E948D0180E00E9494
:100AF0009C0183EB90E02981FC01208389819A810C
:100B00008130914064F080E00E948D0181E00E947C
:100B10009C0183EB90E029812F5FFC012083898178
:100B20009A818115914021F483EB90E0FC011082C1
:100B30008B819C818F3F910509F05CF480E00E94DD
:100B4000AB0181E00E94BA0184EB90E02B81FC01B3
:100B500020838B819C818130914064F081E00E94F0
:100B6000AB0180E00E94BA0184EB90E02B812F5F03
:100B7000FC0120838B819C818115914021F484EBC1
:100B800090E0FC01108200000F900F900F900F90EA
:100B9000DF91CF910895CF93DF9300D000D0CDB7F0
:100BA000DEB71A8219821C821B8285E00E947207BE
:100BB0009A83898384E00E9472079C838B83898156
:100BC0009A81853F91403CF08B819C81853F91408B
:100BD00014F081E001C080E00F900F900F900F9013
:100BE000DF91CF910895CF93DF93CDB7DEB70E9409
:100BF0003004882319F081E090E010C00E94FC02CC
:100C0000882319F082E090E009C00E94C90188237E
:100C100019F083E090E002C080E090E0DF91CF9196
:100C20000895CF93DF93CDB7DEB765970FB6F894ED
:100C3000DEBF0FBECDBF0E94480019821A821B8200
:100C40001C820BC089819A81AB81BC810196A11D58
:100C5000B11D89839A83AB83BC8389819A81AB81DF
:100C6000BC81803A9542A642B10564F36AEF70E018
:100C700080E991E00E9463050E94F3059E838D83C5
:100C80000E94CB058F838D819E81892B49F48F81B2
:100C9000882331F060E070E080E090E00E9463051E
:100CA0008D819E81029749F48F81882331F060E025
:100CB00070E082EC91E00E9463058D819E81039734
:100CC00049F48F81882331F062EC71E080E090E09C
:100CD0000E9463058D819E81019749F48F8188234D
:100CE00031F06EEF71E08EEF91E00E9463059F811D
:100CF00081E08927882309F4BFCF6AEF70E08AEF8B
:100D000090E00E94630580E090E0AAEFB4E4888759
:100D10009987AA87BB8720E030E04AEF54E46885D2
:100D200079858A859B850E94F00EDC01CB018C873A
:100D30009D87AE87BF8720E030E040E85FE36C85A9
:100D40007D858E859F850E94D00D88232CF481E0BF
:100D500090E0998B888B3FC020E03FEF4FE757E44E
:100D60006C857D858E859F850E94EB0E18164CF54F
:100D700020E030E040E251E4688579858A859B85F2
:100D80000E94F00EDC01CB01BC01CD010E94470E98
:100D9000DC01CB01998B888B0FC088EC90E09B8B9A
:100DA0008A8B8A899B890197F1F79B8B8A8B88892B
:100DB00099890197998B888B88899989892B69F7FB
:100DC00014C06C857D858E859F850E94470EDC0151
:100DD000CB01998B888B888999899D8B8C8B8C8989
:100DE0009D890197F1F79D8B8C8B60E070E080E02E
:100DF00090E00E94630540CFCF93DF93CDB7DEB77D
:100E000084E690E024E630E0F90120812E7FFC01A9
:100E100020838CE790E024E4FC0120838AE790E0C3
:100E200022E8FC0120838BE790E0FC0110828EE732
:100E300090E020E3FC01208380E0DF91CF910895D2
:100E4000CF93DF931F92CDB7DEB789838CE790E015
:100E50002CE730E0F9012081207FFC0120838CE722
:100E600090E02CE730E0F90130812981232BFC014F
:100E700020838AE790E02AE730E0F90120812064AE
:100E8000FC01208300000F90DF91CF910895CF9354
:100E9000DF93CDB7DEB78AE790E0FC018081882F31
:100EA00090E08071992721E0892B09F420E0822FBE
:100EB000DF91CF910895CF93DF93CDB7DEB788E769
:100EC00090E0FC018081282F30E089E790E0FC0170
:100ED0008081882F90E0982F8827822B932BDF9199
:100EE000CF910895CF93DF9300D01F92CDB7DEB797
:100EF0008B838B810E94200700000E944707982F58
:100F000081E089278823C9F70E945B079A83898338
:100F10008AE790E02AE730E0F90120812061FC01B6
:100F2000208389819A810F900F900F90DF91CF914C
:100F30000895CF93DF9300D0CDB7DEB789836A835E
:100F40008A81882F90E08130910599F08230910557
:100F5000D9F0892B09F02FC084E290E024E230E040
:100F6000F9012081322F298120952323FC01208340
:100F700022C084E290E024E230E0F901308129814E
:100F8000232BFC01208317C084E290E024E230E0B0
:100F9000F9012081322F298120952323FC01208310
:100FA00085E290E025E230E0F90130812981232BB0
:100FB000FC012083000000000F900F90DF91CF9183
:100FC0000895CF93DF9300D0CDB7DEB789836A83CE
:100FD0008A81882F90E081309105E1F0823091057F
:100FE00071F1892B09F055C084E290E024E230E0F1
:100FF000F9012081622F2981422F50E021E030E069
:1010000002C0220F331F4A95E2F720952623FC01E8
:1010100020833FC084E290E024E230E0F9012081A7
:10102000622F2981422F50E021E030E002C0220FE0
:10103000331F4A95E2F7262BFC0120832AC084E265
:1010400090E024E230E0F9012081622F2981422FD3
:1010500050E021E030E002C0220F331F4A95E2F752
:1010600020952623FC01208385E290E025E230E0F4
:10107000F9012081622F2981422F50E021E030E0E8
:1010800002C0220F331F4A95E2F7262BFC01208372
:10109000000000000F900F90DF91CF910895CF9343
:1010A000DF9300D0CDB7DEB789836A838A81882336
:1010B000A9F085E290E025E230E0F9012081622F7D
:1010C0002981422F50E021E030E002C0220F331F7F
:1010D0004A95E2F7262BFC01208315C085E290E0BB
:1010E00025E230E0F9012081622F2981422F50E072
:1010F00021E030E002C0220F331F4A95E2F720952D
:101100002623FC01208300000F900F90DF91CF91E8
:101110000895CF93DF9300D0CDB7DEB789836A837C
:101120008A81813051F587E290E027E230E0F901D1
:101130002081622F2981422F50E021E030E002C05F
:10114000220F331F4A95E2F720952623FC012083C6
:1011500088E290E028E230E0F9012081622F2981C5
:10116000422F50E021E030E002C0220F331F4A95A9
:10117000E2F7262BFC01208318C08A818823A9F47A
:1011800088E290E028E230E0F9012081622F298195
:10119000422F50E021E030E002C0220F331F4A9579
:1011A000E2F720952623FC01208300000F900F908A
:1011B000DF91CF910895CF93DF9300D0CDB7DEB705
:1011C00089836A838A81882F90E08130910599F024
:1011D00082309105D9F0892B09F02FC087E290E089
:1011E00027E230E0F9012081322F29812095232345
:1011F000FC01208322C087E290E027E230E0F90181
:1012000030812981232BFC01208317C087E290E0E5
:1012100027E230E0F9012081322F29812095232314
:10122000FC01208388E290E028E230E0F90130817F
:101230002981232BFC012083000000000F900F90D8
:10124000DF91CF910895CF93DF9300D0CDB7DEB774
:1012500089836A838A81882F90E081309105E1F04B
:101260008230910571F1892B09F055C087E290E039
:1012700027E230E0F9012081622F2981422F50E0DE
:1012800021E030E002C0220F331F4A95E2F720959B
:101290002623FC0120833FC087E290E027E230E074
:1012A000F9012081622F2981422F50E021E030E0B6
:1012B00002C0220F331F4A95E2F7262BFC01208340
:1012C0002AC087E290E027E230E0F9012081622F16
:1012D0002981422F50E021E030E002C0220F331F6D
:1012E0004A95E2F720952623FC01208388E290E0CE
:1012F00028E230E0F9012081622F2981422F50E05D
:1013000021E030E002C0220F331F4A95E2F7262B7E
:10131000FC012083000000000F900F90DF91CF911F
:101320000895CF93DF9300D0CDB7DEB789836A836A
:101330008A818823A9F088E290E028E230E0F90170
:101340002081622F2981422F50E021E030E002C04D
:10135000220F331F4A95E2F7262BFC01208315C08C
:1013600088E290E028E230E0F9012081622F2981B3
:10137000422F50E021E030E002C0220F331F4A9597
:10138000E2F720952623FC01208300000F900F90A8
:10139000DF91CF910895CF93DF9300D0CDB7DEB723
:1013A00089836A838A81813051F58AE290E02AE25A
:1013B00030E0F9012081622F2981422F50E021E0A5
:1013C00030E002C0220F331F4A95E2F72095262312
:1013D000FC0120838BE290E02BE230E0F9012081D8
:1013E000622F2981422F50E021E030E002C0220F1D
:1013F000331F4A95E2F7262BFC01208318C08A810F
:101400008823A9F48BE290E02BE230E0F9012081FF
:10141000622F2981422F50E021E030E002C0220FEC
:10142000331F4A95E2F720952623FC012083000014
:101430000F900F90DF91CF910895CF93DF9300D05D
:10144000CDB7DEB789836A838A81882F90E08130A7
:10145000910599F082309105D9F0892B09F02FC0C0
:101460008AE290E02AE230E0F9012081322F2981DE
:1014700020952323FC01208322C08AE290E02AE207
:1014800030E0F90130812981232BFC01208317C032
:101490008AE290E02AE230E0F9012081322F2981AE
:1014A00020952323FC0120838BE290E02BE230E0A7
:1014B000F90130812981232BFC01208300000000E9
:1014C0000F900F90DF91CF910895CF93DF9300D0CD
:1014D000CDB7DEB789836A838A81882F90E0813017
:1014E0009105E1F08230910571F1892B09F055C029
:1014F0008AE290E02AE230E0F9012081622F29811E
:10150000422F50E021E030E002C0220F331F4A9505
:10151000E2F720952623FC0120833FC08AE290E079
:101520002AE230E0F9012081622F2981422F50E028
:1015300021E030E002C0220F331F4A95E2F7262B4C
:10154000FC0120832AC08AE290E02AE230E0F9011F
:101550002081622F2981422F50E021E030E002C03B
:10156000220F331F4A95E2F720952623FC012083A2
:101570008BE290E02BE230E0F9012081622F29819B
:10158000422F50E021E030E002C0220F331F4A9585
:10159000E2F7262BFC012083000000000F900F9043
:1015A000DF91CF910895CF93DF9300D0CDB7DEB711
:1015B00089836A838A818823A9F08BE290E02BE2F9
:1015C00030E0F9012081622F2981422F50E021E093
:1015D00030E002C0220F331F4A95E2F7262BFC01B0
:1015E000208315C08BE290E02BE230E0F9012081EE
:1015F000622F2981422F50E021E030E002C0220F0B
:10160000331F4A95E2F720952623FC012083000032
:101610000F900F90DF91CF910895CF93DF931F929A
:10162000CDB7DEB78983698183E00E94E1070000BE
:101630000F90DF91CF910895CF93DF931F92CDB795
:10164000DEB78983698183E00E944F0800000F9014
:10165000DF91CF910895CF93DF931F92CDB7DEB77F
:101660008983698180E00E94230900000F90DF9147
:10167000CF910895CF93DF931F92CDB7DEB78983C3
:10168000698180E00E94910900000F90DF91CF9165
:101690000895CF93DF931F92CDB7DEB78983698119
:1016A00081E00E94890800000F90DF91CF9108959A
:1016B000CF93DF931F92CDB7DEB78983698181E035
:1016C0000E94230900000F90DF91CF910895CF93DE
:1016D000DF931F92CDB7DEB78983698182E00E94D4
:1016E000890800000F90DF91CF910895CF93DF9389
:1016F0001F92CDB7DEB78983698182E00E942309FA
:1017000000000F90DF91CF910895CF93DF931F9248
:10171000CDB7DEB78983698183E00E942309000089
:101720000F90DF91CF910895CF93DF931F92CDB7A4
:10173000DEB78983698183E00E94910900000F90E0
:10174000DF91CF910895CF93DF931F92CDB7DEB78E
:101750008983698184E00E94890800000F90DF91ED
:10176000CF910895CF93DF931F92CDB7DEB78983D2
:10177000698185E00E94890800000F90DF91CF9178
:101780000895CF93DF931F92CDB7DEB78983698128
:1017900081E00E94CB0900000F90DF91CF91089566
:1017A000CF93DF931F92CDB7DEB78983698181E044
:1017B0000E94650A00000F90DF91CF910895CF93AA
:1017C000DF931F92CDB7DEB78983698182E00E94E3
:1017D000650A00000F90DF91CF910895CF93DF93BA
:1017E0001F92CDB7DEB78983698182E00E94D30A58
:1017F00000000F90DF91CF910895CF93DF931F9258
:10180000CDB7DEB78983698183E00E94650A000055
:101810000F90DF91CF910895CF93DF931F92CDB7B3
:10182000DEB78983698183E00E94D30A00000F90AC
:10183000DF91CF910895CF93DF931F92CDB7DEB79D
:101840008983698186E00E94650A00000F90DF911C
:10185000CF910895CF93DF931F92CDB7DEB78983E1
:10186000698186E00E94D30A00000F90DF91CF913A
:101870000895CF93DF931F92CDB7DEB78983698137
:1018800087E00E94650A00000F90DF91CF910895D4
:10189000CF93DF931F92CDB7DEB78983698187E04D
:1018A0000E94D30A00000F90DF91CF910895CF934B
:1018B000DF931F92CDB7DEB78983698181E00E94F3
:1018C000E10700000F90DF91CF910895CF93DF9350
:1018D0001F92CDB7DEB78983698181E00E944F08EE
:1018E00000000F90DF91CF910895CF93DF931F9267
:1018F000CDB7DEB78983698182E00E94E1070000ED
:101900000F90DF91CF910895CF93DF931F92CDB7C2
:10191000DEB78983698182E00E944F0800000F9042
:10192000DF91CF910895CF93DF93CDB7DEB740E03D
:1019300060E881E690E00E94340D83E590E0FC01D0
:10194000108285E590E0FC01108280E0DF91CF916C
:101950000895CF93DF93CDB7DEB784E690E02FEE06
:10196000FC01208362E08FEF0E94990762E08FE71D
:101970000E94DB0862E08FEF0E941D0A0000DF91E9
:10198000CF910895CF93DF93CDB7DEB780E00E946B
:10199000A30B80E00E94B20B0E94FC060000DF91C6
:1019A000CF910895CF93DF93CDB7DEB70E943B0D63
:1019B0000000DF91CF910895CF93DF93CDB7DEB7CD
:1019C0000E94A90C81E00E940D0B80E00E941C0B7C
:1019D00081E00E942B0B80E00E943A0B80E00E9485
:1019E000580B80E00E94490B80E00E94760B80E05B
:1019F0000E94670B81E00E94850B80E00E94940B9F
:101A000080E00E94D00B81E00E94C10B81E00E9427
:101A1000DF0B80E00E94EE0B81E00E94FD0B80E076
:101A20000E940C0C81E00E941B0C80E00E942A0C9A
:101A300081E00E94390C80E00E94480C81E00E9405
:101A4000570C80E00E94660C81E00E94750C80E0DB
:101A50000E94840C0E94930C0E94C20C0E94D20C23
:101A60000000DF91CF9108952FB7F894FC016083B7
:101A700040832FBF0895CF93DF93CDB7DEB784E6C1
:101A800090E024E630E0F90120812F7BFC012083E7
:101A900080EB90E023EAFC01208381EB90E023E0DF
:101AA000FC01208383EB90E0FC01108284E290E053
:101AB0002FEFFC01208384EB90E0FC01108280E09A
:101AC000DF91CF9108955058BB27AA270E947B0D24
:101AD0000C94B10E0E94A30E38F00E94AA0E20F0C2
:101AE00039F49F3F19F426F40C94A00E0EF4E095FF
:101AF000E7FB0C949A0EE92F0E94C20E58F3BA1716
:101B0000620773078407950720F079F4A6F50C9413
:101B1000E40E0EF4E0950B2EBA2FA02D0B01B901A7
:101B200090010C01CA01A0011124FF27591B99F053
:101B3000593F50F4503E68F11A16F040A22F232F5F
:101B4000342F4427585FF3CF469537952795A795AF
:101B5000F0405395C9F77EF41F16BA0B620B730B56
:101B6000840BBAF09150A1F0FF0FBB1F661F771FC7
:101B7000881FC2F70EC0BA0F621F731F841F48F47C
:101B8000879577956795B795F7959E3F08F0B0CF05
:101B90009395880F08F09927EE0F979587950895EC
:101BA0000E94760E08F481E008950E94E90D0C94DD
:101BB000B10E0E94AA0E58F00E94A30E40F029F424
:101BC0005F3F29F00C949A0E51110C94E50E0C9481
:101BD000A00E0E94C20E68F39923B1F3552391F32E
:101BE000951B550BBB27AA2762177307840738F08C
:101BF0009F5F5F4F220F331F441FAA1FA9F335D0E9
:101C00000E2E3AF0E0E832D091505040E695001C9C
:101C1000CAF72BD0FE2F29D0660F771F881FBB1F56
:101C2000261737074807AB07B0E809F0BB0B802D34
:101C3000BF01FF2793585F4F3AF09E3F510578F060
:101C40000C949A0E0C94E50E5F3FE4F3983ED4F3A7
:101C5000869577956795B795F7959F5FC9F7880F34
:101C6000911D9695879597F90895E1E0660F771F86
:101C7000881FBB1F621773078407BA0720F0621B17
:101C8000730B840BBA0BEE1F88F7E09508950E9442
:101C9000CA0E88F09F5798F0B92F9927B751B0F026
:101CA000E1F0660F771F881F991F1AF0BA95C9F7E0
:101CB00014C0B13091F00E94E40EB1E008950C948C
:101CC000E40E672F782F8827B85F39F0B93FCCF33F
:101CD000869577956795B395D9F73EF4909580955D
:101CE000709561957F4F8F4F9F4F0895990F000812
:101CF000550FAA0BE0E8FEEF16161706E807F907DE
:101D0000C0F012161306E407F50798F0621B730B78
:101D1000840B950B39F40A2661F0232B242B252BF9
:101D200021F408950A2609F4A140A6958FEF811D9C
:101D3000811D089597F99F6780E870E060E008953D
:101D40009FEF80EC089500240A94161617061806D3
:101D50000906089500240A941216130614060506AF
:101D60000895092E0394000C11F4882352F0BB0F40
:101D700040F4BF2B11F460FF04C06F5F7F4F8F4FA3
:101D80009F4F089557FD9058440F551F59F05F3FDE
:101D900071F04795880F97FB991F61F09F3F79F08D
:101DA00087950895121613061406551FF2CF46950F
:101DB000F1DF08C0161617061806991FF1CF869591
:101DC0007105610508940895E894BB276627772775
:101DD000CB0197F908950E94760E08F48FEF0895CD
:101DE0000E94030F0C94B10E0E94A30E38F00E94C3
:101DF000AA0E20F0952311F00C949A0E0C94A00ECC
:101E000011240C94E50E0E94C20E70F3959FC1F34D
:101E1000950F50E0551F629FF001729FBB27F00D98
:101E2000B11D639FAA27F00DB11DAA1F649F6627ED
:101E3000B00DA11D661F829F2227B00DA11D621F3C
:101E4000739FB00DA11D621F839FA00D611D221FF6
:101E5000749F3327A00D611D231F849F600D211DDA
:101E6000822F762F6A2F11249F5750409AF0F1F05D
:101E700088234AF0EE0FFF1FBB1F661F771F881FC6
:101E800091505040A9F79E3F510580F00C949A0E56
:101E90000C94E50E5F3FE4F3983ED4F38695779576
:101EA0006795B795F795E7959F5FC1F7FE2B880F6C
:0E1EB000911D9695879597F90895F894FFCFA8
:00000001FF
